{
  "address": "0xb4965f4e66DEd1b1AeAAf6DCADf4Cd8FD78b2feD",
  "abi": [
    {
      "inputs": [
        {
          "internalType": "address",
          "name": "__entrypoint",
          "type": "address"
        }
      ],
      "stateMutability": "nonpayable",
      "type": "constructor"
    },
    {
      "inputs": [],
      "name": "ERC1167FailedCreateClone",
      "type": "error"
    },
    {
      "inputs": [],
      "name": "EmptyImplementation",
      "type": "error"
    },
    {
      "inputs": [],
      "name": "InvalidInitialization",
      "type": "error"
    },
    {
      "inputs": [
        {
          "internalType": "uint256",
          "name": "currentVersion",
          "type": "uint256"
        },
        {
          "internalType": "uint256",
          "name": "newVersion",
          "type": "uint256"
        }
      ],
      "name": "InvalidVersion",
      "type": "error"
    },
    {
      "inputs": [],
      "name": "NotInitializing",
      "type": "error"
    },
    {
      "inputs": [
        {
          "internalType": "address",
          "name": "owner",
          "type": "address"
        }
      ],
      "name": "OwnableInvalidOwner",
      "type": "error"
    },
    {
      "inputs": [
        {
          "internalType": "address",
          "name": "account",
          "type": "address"
        }
      ],
      "name": "OwnableUnauthorizedAccount",
      "type": "error"
    },
    {
      "anonymous": false,
      "inputs": [
        {
          "indexed": false,
          "internalType": "address",
          "name": "accountOwner",
          "type": "address"
        },
        {
          "indexed": false,
          "internalType": "address",
          "name": "account",
          "type": "address"
        }
      ],
      "name": "AccountDeployed",
      "type": "event"
    },
    {
      "anonymous": false,
      "inputs": [
        {
          "indexed": false,
          "internalType": "address",
          "name": "implementation",
          "type": "address"
        }
      ],
      "name": "ImplementationUpdated",
      "type": "event"
    },
    {
      "anonymous": false,
      "inputs": [
        {
          "indexed": false,
          "internalType": "uint64",
          "name": "version",
          "type": "uint64"
        }
      ],
      "name": "Initialized",
      "type": "event"
    },
    {
      "anonymous": false,
      "inputs": [
        {
          "indexed": true,
          "internalType": "address",
          "name": "previousOwner",
          "type": "address"
        },
        {
          "indexed": true,
          "internalType": "address",
          "name": "newOwner",
          "type": "address"
        }
      ],
      "name": "OwnershipTransferred",
      "type": "event"
    },
    {
      "inputs": [
        {
          "internalType": "uint32",
          "name": "unstakeDelaySec",
          "type": "uint32"
        }
      ],
      "name": "addStake",
      "outputs": [],
      "stateMutability": "payable",
      "type": "function"
    },
    {
      "inputs": [],
      "name": "beaconProxy",
      "outputs": [
        {
          "internalType": "address",
          "name": "",
          "type": "address"
        }
      ],
      "stateMutability": "view",
      "type": "function"
    },
    {
      "inputs": [
        {
          "internalType": "address",
          "name": "accountOwner",
          "type": "address"
        }
      ],
      "name": "deployAccount",
      "outputs": [
        {
          "internalType": "address",
          "name": "account",
          "type": "address"
        }
      ],
      "stateMutability": "nonpayable",
      "type": "function"
    },
    {
      "inputs": [
        {
          "internalType": "address",
          "name": "accountOwner",
          "type": "address"
        }
      ],
      "name": "deriveAccount",
      "outputs": [
        {
          "internalType": "address",
          "name": "account",
          "type": "address"
        }
      ],
      "stateMutability": "view",
      "type": "function"
    },
    {
      "inputs": [],
      "name": "entryPoint",
      "outputs": [
        {
          "internalType": "address",
          "name": "",
          "type": "address"
        }
      ],
      "stateMutability": "view",
      "type": "function"
    },
    {
      "inputs": [
        {
          "internalType": "address",
          "name": "accountOwner",
          "type": "address"
        }
      ],
      "name": "getAccountSalt",
      "outputs": [
        {
          "internalType": "bytes32",
          "name": "",
          "type": "bytes32"
        }
      ],
      "stateMutability": "pure",
      "type": "function"
    },
    {
      "inputs": [],
      "name": "getBeaconProxyCreationCode",
      "outputs": [
        {
          "internalType": "bytes",
          "name": "",
          "type": "bytes"
        }
      ],
      "stateMutability": "pure",
      "type": "function"
    },
    {
      "inputs": [],
      "name": "getBeaconProxyInitHash",
      "outputs": [
        {
          "internalType": "bytes32",
          "name": "",
          "type": "bytes32"
        }
      ],
      "stateMutability": "pure",
      "type": "function"
    },
    {
      "inputs": [],
      "name": "implementation",
      "outputs": [
        {
          "internalType": "address",
          "name": "",
          "type": "address"
        }
      ],
      "stateMutability": "view",
      "type": "function"
    },
    {
      "inputs": [
        {
          "internalType": "address",
          "name": "__implementation",
          "type": "address"
        },
        {
          "internalType": "address",
          "name": "__owner",
          "type": "address"
        }
      ],
      "name": "initialize",
      "outputs": [],
      "stateMutability": "nonpayable",
      "type": "function"
    },
    {
      "inputs": [],
      "name": "owner",
      "outputs": [
        {
          "internalType": "address",
          "name": "",
          "type": "address"
        }
      ],
      "stateMutability": "view",
      "type": "function"
    },
    {
      "inputs": [],
      "name": "payMaster",
      "outputs": [
        {
          "internalType": "address",
          "name": "",
          "type": "address"
        }
      ],
      "stateMutability": "view",
      "type": "function"
    },
    {
      "inputs": [],
      "name": "renounceOwnership",
      "outputs": [],
      "stateMutability": "nonpayable",
      "type": "function"
    },
    {
      "inputs": [
        {
          "internalType": "address",
          "name": "__implementation",
          "type": "address"
        }
      ],
      "name": "setImplementation",
      "outputs": [],
      "stateMutability": "nonpayable",
      "type": "function"
    },
    {
      "inputs": [
        {
          "internalType": "address",
          "name": "newOwner",
          "type": "address"
        }
      ],
      "name": "transferOwnership",
      "outputs": [],
      "stateMutability": "nonpayable",
      "type": "function"
    },
    {
      "inputs": [],
      "name": "unlockStake",
      "outputs": [],
      "stateMutability": "nonpayable",
      "type": "function"
    },
    {
      "inputs": [
        {
          "internalType": "address payable",
          "name": "withdrawAddress",
          "type": "address"
        }
      ],
      "name": "withdrawStake",
      "outputs": [],
      "stateMutability": "nonpayable",
      "type": "function"
    }
  ],
  "transactionHash": "0xc2db9e8b22d86fb54a8fa059ad9472ac304c8e8befe28e780085c269a43e28f0",
  "args": [
    "0x5FF137D4b0FDCD49DcA30c7CF57E578a026d2789"
  ],
  "numDeployments": 1,
  "solcInputHash": "47c0b29aa44f5f84f345640c7c017bdb",
  "bytecode": "0x60c06040523480156200001157600080fd5b506040516200341b3803806200341b83398181016040528101906200003791906200021e565b8073ffffffffffffffffffffffffffffffffffffffff1660808173ffffffffffffffffffffffffffffffffffffffff16815250506200007b6200008260201b60201c565b5062000292565b6000620000946200018c60201b60201c565b90508060000160089054906101000a900460ff1615620000e0576040517ff92ee8a900000000000000000000000000000000000000000000000000000000815260040160405180910390fd5b67ffffffffffffffff80168160000160009054906101000a900467ffffffffffffffff1667ffffffffffffffff1614620001895767ffffffffffffffff8160000160006101000a81548167ffffffffffffffff021916908367ffffffffffffffff1602179055507fc7f505b2f371ae2175ee4913f4499e1f2633a7b5936321eed1cdaeb6115181d267ffffffffffffffff60405162000180919062000275565b60405180910390a15b50565b60007ff0c57e16840df040f15088dc2f81fe391c3923bec73e23a9662efc9c229c6a00905090565b600080fd5b600073ffffffffffffffffffffffffffffffffffffffff82169050919050565b6000620001e682620001b9565b9050919050565b620001f881620001d9565b81146200020457600080fd5b50565b6000815190506200021881620001ed565b92915050565b600060208284031215620002375762000236620001b4565b5b6000620002478482850162000207565b91505092915050565b600067ffffffffffffffff82169050919050565b6200026f8162000250565b82525050565b60006020820190506200028c600083018462000264565b92915050565b60805160a051613147620002d460003960006104e401526000818161044f015281816106780152818161086e0152818161089e015261092c01526131476000f3fe608060405260043610620001165760003560e01c80638da5cb5b11620000a3578063d784d426116200006d578063d784d426146200032f578063da9fc1ae146200035d578063e89644d314620003a1578063eb27215714620003e5578063f2fde38b14620004155762000116565b80638da5cb5b1462000287578063b0d691fe14620002b7578063bb9fe6bf14620002e7578063c23a5cea14620003015762000116565b80635c60da1b11620000e55780635c60da1b14620001c9578063715018a614620001f9578063796b6cb814620002135780638524b75114620002435762000116565b80630396cb60146200011b578063168cdda5146200013b5780633f8d5c9e146200016b578063485cc955146200019b575b600080fd5b620001396004803603810190620001339190620012ed565b62000443565b005b3480156200014857600080fd5b5062000153620004e0565b60405162000162919062001364565b60405180910390f35b3480156200017857600080fd5b506200018362000508565b6040516200019291906200139c565b60405180910390f35b348015620001a857600080fd5b50620001c76004803603810190620001c19190620013ea565b62000541565b005b348015620001d657600080fd5b50620001e162000782565b604051620001f0919062001364565b60405180910390f35b3480156200020657600080fd5b5062000211620007ac565b005b3480156200022057600080fd5b506200022b620007c4565b6040516200023a9190620014cb565b60405180910390f35b3480156200025057600080fd5b506200026f6004803603810190620002699190620014ef565b620007f1565b6040516200027e919062001364565b60405180910390f35b3480156200029457600080fd5b506200029f62000830565b604051620002ae919062001364565b60405180910390f35b348015620002c457600080fd5b50620002cf6200086a565b604051620002de919062001364565b60405180910390f35b348015620002f457600080fd5b50620002ff62000892565b005b3480156200030e57600080fd5b506200032d600480360381019062000327919062001566565b62000920565b005b3480156200033c57600080fd5b506200035b6004803603810190620003559190620014ef565b620009bc565b005b3480156200036a57600080fd5b50620003896004803603810190620003839190620014ef565b62000b33565b60405162000398919062001364565b60405180910390f35b348015620003ae57600080fd5b50620003cd6004803603810190620003c79190620014ef565b62000ceb565b604051620003dc91906200139c565b60405180910390f35b348015620003f257600080fd5b50620003fd62000d1d565b6040516200040c919062001364565b60405180910390f35b3480156200042257600080fd5b506200044160048036038101906200043b9190620014ef565b62000d46565b005b6200044d62000dd3565b7f000000000000000000000000000000000000000000000000000000000000000073ffffffffffffffffffffffffffffffffffffffff16630396cb6034836040518363ffffffff1660e01b8152600401620004a99190620015a9565b6000604051808303818588803b158015620004c357600080fd5b505af1158015620004d8573d6000803e3d6000fd5b505050505050565b60007f0000000000000000000000000000000000000000000000000000000000000000905090565b600062000514620007c4565b60405160200162000526919062001608565b60405160208183030381529060405280519060200120905090565b60006200054d62000e63565b905060008160000160089054906101000a900460ff1615905060008260000160009054906101000a900467ffffffffffffffff1690506000808267ffffffffffffffff161480156200059c5750825b9050600060018367ffffffffffffffff16148015620005d2575060003073ffffffffffffffffffffffffffffffffffffffff163b145b905081158015620005e1575080155b1562000619576040517ff92ee8a900000000000000000000000000000000000000000000000000000000815260040160405180910390fd5b60018560000160006101000a81548167ffffffffffffffff021916908367ffffffffffffffff16021790555083156200066a5760018560000160086101000a81548160ff0219169083151502179055505b620006758762000e8b565b307f0000000000000000000000000000000000000000000000000000000000000000604051620006a59062001299565b620006b292919062001621565b604051809103906000f080158015620006cf573d6000803e3d6000fd5b506000806101000a81548173ffffffffffffffffffffffffffffffffffffffff021916908373ffffffffffffffffffffffffffffffffffffffff1602179055506200071a8662000f5a565b8315620007795760008560000160086101000a81548160ff0219169083151502179055507fc7f505b2f371ae2175ee4913f4499e1f2633a7b5936321eed1cdaeb6115181d26001604051620007709190620016af565b60405180910390a15b50505050505050565b6000600160009054906101000a900473ffffffffffffffffffffffffffffffffffffffff16905090565b620007b662000dd3565b620007c2600062000f72565b565b606060405180602001620007d89062001299565b6020820181038252601f19601f82011660405250905090565b60006200082960008054906101000a900473ffffffffffffffffffffffffffffffffffffffff16620008238462000ceb565b6200104b565b9050919050565b6000806200083d62001062565b90508060000160009054906101000a900473ffffffffffffffffffffffffffffffffffffffff1691505090565b60007f0000000000000000000000000000000000000000000000000000000000000000905090565b6200089c62000dd3565b7f000000000000000000000000000000000000000000000000000000000000000073ffffffffffffffffffffffffffffffffffffffff1663bb9fe6bf6040518163ffffffff1660e01b8152600401600060405180830381600087803b1580156200090557600080fd5b505af11580156200091a573d6000803e3d6000fd5b50505050565b6200092a62000dd3565b7f000000000000000000000000000000000000000000000000000000000000000073ffffffffffffffffffffffffffffffffffffffff1663c23a5cea826040518263ffffffff1660e01b8152600401620009859190620016dd565b600060405180830381600087803b158015620009a057600080fd5b505af1158015620009b5573d6000803e3d6000fd5b5050505050565b620009c662000dd3565b6000600160009054906101000a900473ffffffffffffffffffffffffffffffffffffffff1673ffffffffffffffffffffffffffffffffffffffff166354fd4d506040518163ffffffff1660e01b8152600401602060405180830381865afa15801562000a36573d6000803e3d6000fd5b505050506040513d601f19601f8201168201806040525081019062000a5c919062001738565b60ff16905060008273ffffffffffffffffffffffffffffffffffffffff166354fd4d506040518163ffffffff1660e01b8152600401602060405180830381865afa15801562000aaf573d6000803e3d6000fd5b505050506040513d601f19601f8201168201806040525081019062000ad5919062001738565b60ff16905081811162000b235781816040517f75f4166700000000000000000000000000000000000000000000000000000000815260040162000b1a92919062001785565b60405180910390fd5b62000b2e8362000e8b565b505050565b600062000b4082620007f1565b905060008173ffffffffffffffffffffffffffffffffffffffff163b0362000ce65762000b9860008054906101000a900473ffffffffffffffffffffffffffffffffffffffff1662000b928462000ceb565b6200108a565b9050600063c4d66de860e01b8360405160240162000bb7919062001364565b604051602081830303815290604052907bffffffffffffffffffffffffffffffffffffffffffffffffffffffff19166020820180517bffffffffffffffffffffffffffffffffffffffffffffffffffffffff838183161783525050505090508173ffffffffffffffffffffffffffffffffffffffff1663d1f57894600160009054906101000a900473ffffffffffffffffffffffffffffffffffffffff16836040518363ffffffff1660e01b815260040162000c75929190620017b2565b600060405180830381600087803b15801562000c9057600080fd5b505af115801562000ca5573d6000803e3d6000fd5b505050507f2682a218602b9036c9869f006c5405ee4a1a65267653eb7e286123e5e1afde4c838360405162000cdc92919062001621565b60405180910390a1505b919050565b60008160405160200162000d00919062001836565b604051602081830303815290604052805190602001209050919050565b60008060009054906101000a900473ffffffffffffffffffffffffffffffffffffffff16905090565b62000d5062000dd3565b600073ffffffffffffffffffffffffffffffffffffffff168173ffffffffffffffffffffffffffffffffffffffff160362000dc55760006040517f1e4fbdf700000000000000000000000000000000000000000000000000000000815260040162000dbc919062001364565b60405180910390fd5b62000dd08162000f72565b50565b62000ddd6200113e565b73ffffffffffffffffffffffffffffffffffffffff1662000dfd62000830565b73ffffffffffffffffffffffffffffffffffffffff161462000e615762000e236200113e565b6040517f118cdaa700000000000000000000000000000000000000000000000000000000815260040162000e58919062001364565b60405180910390fd5b565b60007ff0c57e16840df040f15088dc2f81fe391c3923bec73e23a9662efc9c229c6a00905090565b60008173ffffffffffffffffffffffffffffffffffffffff163b0362000edd576040517feb2b275c00000000000000000000000000000000000000000000000000000000815260040160405180910390fd5b80600160006101000a81548173ffffffffffffffffffffffffffffffffffffffff021916908373ffffffffffffffffffffffffffffffffffffffff1602179055507f310ba5f1d2ed074b51e2eccd052a47ae9ab7c6b800d1fca3db3999d6a592ca038160405162000f4f919062001364565b60405180910390a150565b62000f6462001146565b62000f6f8162001189565b50565b600062000f7e62001062565b905060008160000160009054906101000a900473ffffffffffffffffffffffffffffffffffffffff169050828260000160006101000a81548173ffffffffffffffffffffffffffffffffffffffff021916908373ffffffffffffffffffffffffffffffffffffffff1602179055508273ffffffffffffffffffffffffffffffffffffffff168173ffffffffffffffffffffffffffffffffffffffff167f8be0079c531659141344cd1fd0a4f28419497f9722a3daafe3b4186f6b6457e060405160405180910390a3505050565b60006200105a83833062001216565b905092915050565b60007f9016d09d72d40fdae2fd8ceac6b6234c7706214fd39c1cd1e609a0528c199300905090565b6000763d602d80600a3d3981f3363d3d373d3d3d363d730000008360601b60e81c176000526e5af43d82803e903d91602b57fd5bf38360781b1760205281603760096000f59050600073ffffffffffffffffffffffffffffffffffffffff168173ffffffffffffffffffffffffffffffffffffffff160362001138576040517fc2f868f400000000000000000000000000000000000000000000000000000000815260040160405180910390fd5b92915050565b600033905090565b6200115062001277565b62001187576040517fd7e6bcf800000000000000000000000000000000000000000000000000000000815260040160405180910390fd5b565b6200119362001146565b600073ffffffffffffffffffffffffffffffffffffffff168173ffffffffffffffffffffffffffffffffffffffff1603620012085760006040517f1e4fbdf7000000000000000000000000000000000000000000000000000000008152600401620011ff919062001364565b60405180910390fd5b620012138162000f72565b50565b60006040518260388201526f5af43d82803e903d91602b57fd5bf3ff6024820152846014820152733d602d80600a3d3981f3363d3d373d3d3d363d7381528360588201526037600c8201206078820152605560438201209150509392505050565b60006200128362000e63565b60000160089054906101000a900460ff16905090565b6118be806200185483390190565b600080fd5b600063ffffffff82169050919050565b620012c781620012ac565b8114620012d357600080fd5b50565b600081359050620012e781620012bc565b92915050565b600060208284031215620013065762001305620012a7565b5b60006200131684828501620012d6565b91505092915050565b600073ffffffffffffffffffffffffffffffffffffffff82169050919050565b60006200134c826200131f565b9050919050565b6200135e816200133f565b82525050565b60006020820190506200137b600083018462001353565b92915050565b6000819050919050565b620013968162001381565b82525050565b6000602082019050620013b360008301846200138b565b92915050565b620013c4816200133f565b8114620013d057600080fd5b50565b600081359050620013e481620013b9565b92915050565b60008060408385031215620014045762001403620012a7565b5b60006200141485828601620013d3565b92505060206200142785828601620013d3565b9150509250929050565b600081519050919050565b600082825260208201905092915050565b60005b838110156200146d57808201518184015260208101905062001450565b60008484015250505050565b6000601f19601f8301169050919050565b6000620014978262001431565b620014a381856200143c565b9350620014b58185602086016200144d565b620014c08162001479565b840191505092915050565b60006020820190508181036000830152620014e781846200148a565b905092915050565b600060208284031215620015085762001507620012a7565b5b60006200151884828501620013d3565b91505092915050565b60006200152e826200131f565b9050919050565b620015408162001521565b81146200154c57600080fd5b50565b600081359050620015608162001535565b92915050565b6000602082840312156200157f576200157e620012a7565b5b60006200158f848285016200154f565b91505092915050565b620015a381620012ac565b82525050565b6000602082019050620015c0600083018462001598565b92915050565b600081905092915050565b6000620015de8262001431565b620015ea8185620015c6565b9350620015fc8185602086016200144d565b80840191505092915050565b6000620016168284620015d1565b915081905092915050565b600060408201905062001638600083018562001353565b62001647602083018462001353565b9392505050565b6000819050919050565b600067ffffffffffffffff82169050919050565b6000819050919050565b600062001697620016916200168b846200164e565b6200166c565b62001658565b9050919050565b620016a98162001676565b82525050565b6000602082019050620016c660008301846200169e565b92915050565b620016d78162001521565b82525050565b6000602082019050620016f46000830184620016cc565b92915050565b600060ff82169050919050565b6200171281620016fa565b81146200171e57600080fd5b50565b600081519050620017328162001707565b92915050565b600060208284031215620017515762001750620012a7565b5b6000620017618482850162001721565b91505092915050565b6000819050919050565b6200177f816200176a565b82525050565b60006040820190506200179c600083018562001774565b620017ab602083018462001774565b9392505050565b6000604082019050620017c9600083018562001353565b8181036020830152620017dd81846200148a565b90509392505050565b60008160601b9050919050565b60006200180082620017e6565b9050919050565b60006200181482620017f3565b9050919050565b620018306200182a826200133f565b62001807565b82525050565b60006200184482846200181b565b6014820191508190509291505056fe60c0604052604051620018be380380620018be833981810160405281019062000029919062000107565b81818173ffffffffffffffffffffffffffffffffffffffff1660808173ffffffffffffffffffffffffffffffffffffffff16815250508073ffffffffffffffffffffffffffffffffffffffff1660a08173ffffffffffffffffffffffffffffffffffffffff1681525050505050506200014e565b600080fd5b600073ffffffffffffffffffffffffffffffffffffffff82169050919050565b6000620000cf82620000a2565b9050919050565b620000e181620000c2565b8114620000ed57600080fd5b50565b6000815190506200010181620000d6565b92915050565b600080604083850312156200012157620001206200009d565b5b60006200013185828601620000f0565b92505060206200014485828601620000f0565b9150509250929050565b60805160a0516117436200017b600039600061024101526000818161041701526109ca01526117436000f3fe6080604052600436106100745760003560e01c8063b0d691fe1161004e578063b0d691fe14610104578063d087d2881461012f578063d1f578941461015a578063f2fde38b146101835761007b565b80633a871cdd14610085578063715018a6146100c25780638da5cb5b146100d95761007b565b3661007b57005b6100836101ac565b005b34801561009157600080fd5b506100ac60048036038101906100a79190610fc1565b6101be565b6040516100b9919061103f565b60405180910390f35b3480156100ce57600080fd5b506100d76101f1565b005b3480156100e557600080fd5b506100ee610205565b6040516100fb919061109b565b60405180910390f35b34801561011057600080fd5b5061011961023d565b6040516101269190611115565b60405180910390f35b34801561013b57600080fd5b50610144610265565b604051610151919061103f565b60405180910390f35b34801561016657600080fd5b50610181600480360381019061017c91906112a2565b6102f0565b005b34801561018f57600080fd5b506101aa60048036038101906101a591906112fe565b6104a2565b005b6101bc6101b7610528565b6105a5565b565b60006101c86105cb565b6101d28484610642565b90506101e18460200135610705565b6101ea82610708565b9392505050565b6101f96107a4565b610203600061082b565b565b600080610210610902565b90508060000160009054906101000a900473ffffffffffffffffffffffffffffffffffffffff1691505090565b60007f0000000000000000000000000000000000000000000000000000000000000000905090565b600061026f61023d565b73ffffffffffffffffffffffffffffffffffffffff166335567e1a3060006040518363ffffffff1660e01b81526004016102aa92919061138a565b602060405180830381865afa1580156102c7573d6000803e3d6000fd5b505050506040513d601f19601f820116820180604052508101906102eb91906113c8565b905090565b60006102fa61092a565b905060008160000160089054906101000a900460ff1615905060008260000160009054906101000a900467ffffffffffffffff1690506000808267ffffffffffffffff161480156103485750825b9050600060018367ffffffffffffffff1614801561037d575060003073ffffffffffffffffffffffffffffffffffffffff163b145b90508115801561038b575080155b156103c2576040517ff92ee8a900000000000000000000000000000000000000000000000000000000815260040160405180910390fd5b60018560000160006101000a81548167ffffffffffffffff021916908367ffffffffffffffff16021790555083156104125760018560000160086101000a81548160ff0219169083151502179055505b61043d7f00000000000000000000000000000000000000000000000000000000000000008888610952565b83156104995760008560000160086101000a81548160ff0219169083151502179055507fc7f505b2f371ae2175ee4913f4499e1f2633a7b5936321eed1cdaeb6115181d260016040516104909190611444565b60405180910390a15b50505050505050565b6104aa6107a4565b600073ffffffffffffffffffffffffffffffffffffffff168173ffffffffffffffffffffffffffffffffffffffff160361051c5760006040517f1e4fbdf7000000000000000000000000000000000000000000000000000000008152600401610513919061109b565b60405180910390fd5b6105258161082b565b50565b60006105326109c6565b73ffffffffffffffffffffffffffffffffffffffff16635c60da1b6040518163ffffffff1660e01b8152600401602060405180830381865afa15801561057c573d6000803e3d6000fd5b505050506040513d601f19601f820116820180604052508101906105a09190611474565b905090565b3660008037600080366000845af43d6000803e80600081146105c6573d6000f35b3d6000fd5b6105d361023d565b73ffffffffffffffffffffffffffffffffffffffff163373ffffffffffffffffffffffffffffffffffffffff1614610640576040517f08c379a0000000000000000000000000000000000000000000000000000000008152600401610637906114fe565b60405180910390fd5b565b60008061064e836109ee565b90506106b684806101400190610664919061152d565b8080601f016020809104026020016040519081016040528093929190818152602001838380828437600081840152601f19601f8201169050808301925050505050505082610a2490919063ffffffff16565b73ffffffffffffffffffffffffffffffffffffffff166106d4610205565b73ffffffffffffffffffffffffffffffffffffffff16146106f95760019150506106ff565b60009150505b92915050565b50565b600081146107a15760003373ffffffffffffffffffffffffffffffffffffffff16827fffffffffffffffffffffffffffffffffffffffffffffffffffffffffffffffff90604051610758906115c1565b600060405180830381858888f193505050503d8060008114610796576040519150601f19603f3d011682016040523d82523d6000602084013e61079b565b606091505b50509050505b50565b6107ac610a50565b73ffffffffffffffffffffffffffffffffffffffff166107ca610205565b73ffffffffffffffffffffffffffffffffffffffff1614610829576107ed610a50565b6040517f118cdaa7000000000000000000000000000000000000000000000000000000008152600401610820919061109b565b60405180910390fd5b565b6000610835610902565b905060008160000160009054906101000a900473ffffffffffffffffffffffffffffffffffffffff169050828260000160006101000a81548173ffffffffffffffffffffffffffffffffffffffff021916908373ffffffffffffffffffffffffffffffffffffffff1602179055508273ffffffffffffffffffffffffffffffffffffffff168173ffffffffffffffffffffffffffffffffffffffff167f8be0079c531659141344cd1fd0a4f28419497f9722a3daafe3b4186f6b6457e060405160405180910390a3505050565b60007f9016d09d72d40fdae2fd8ceac6b6234c7706214fd39c1cd1e609a0528c199300905090565b60007ff0c57e16840df040f15088dc2f81fe391c3923bec73e23a9662efc9c229c6a00905090565b61095b83610a58565b8273ffffffffffffffffffffffffffffffffffffffff167f1cf3b03a6cf19fa2baba4df148e9dcabedea7f8a5c07840e207e5c089be95d3e60405160405180910390a26000815111156109b8576109b28282610ac9565b506109c1565b6109c0610b4d565b5b505050565b60007f0000000000000000000000000000000000000000000000000000000000000000905090565b60007f19457468657265756d205369676e6564204d6573736167653a0a33320000000060005281601c52603c6000209050919050565b600080600080610a348686610b8a565b925092509250610a448282610be6565b82935050505092915050565b600033905090565b80610a857fa3f0ad74e5423aebfd80d3ef4346578335a9a72aeaee59ff6cb3582b35133d5060001b610d4a565b60000160006101000a81548173ffffffffffffffffffffffffffffffffffffffff021916908373ffffffffffffffffffffffffffffffffffffffff16021790555050565b60606000808473ffffffffffffffffffffffffffffffffffffffff1684604051610af3919061163c565b600060405180830381855af49150503d8060008114610b2e576040519150601f19603f3d011682016040523d82523d6000602084013e610b33565b606091505b5091509150610b43858383610d54565b9250505092915050565b6000341115610b88576040517fb398979f00000000000000000000000000000000000000000000000000000000815260040160405180910390fd5b565b60008060006041845103610bcf5760008060006020870151925060408701519150606087015160001a9050610bc188828585610de3565b955095509550505050610bdf565b60006002855160001b9250925092505b9250925092565b60006003811115610bfa57610bf9611653565b5b826003811115610c0d57610c0c611653565b5b0315610d465760016003811115610c2757610c26611653565b5b826003811115610c3a57610c39611653565b5b03610c71576040517ff645eedf00000000000000000000000000000000000000000000000000000000815260040160405180910390fd5b60026003811115610c8557610c84611653565b5b826003811115610c9857610c97611653565b5b03610cdd578060001c6040517ffce698f7000000000000000000000000000000000000000000000000000000008152600401610cd4919061103f565b60405180910390fd5b600380811115610cf057610cef611653565b5b826003811115610d0357610d02611653565b5b03610d4557806040517fd78bce0c000000000000000000000000000000000000000000000000000000008152600401610d3c9190611691565b60405180910390fd5b5b5050565b6000819050919050565b606082610d6957610d6482610ed7565b610ddb565b60008251148015610d91575060008473ffffffffffffffffffffffffffffffffffffffff163b145b15610dd357836040517f9996b315000000000000000000000000000000000000000000000000000000008152600401610dca919061109b565b60405180910390fd5b819050610ddc565b5b9392505050565b60008060007f7fffffffffffffffffffffffffffffff5d576e7357a4501ddfe92f46681b20a08460001c1115610e23576000600385925092509250610ecd565b600060018888888860405160008152602001604052604051610e4894939291906116c8565b6020604051602081039080840390855afa158015610e6a573d6000803e3d6000fd5b505050602060405103519050600073ffffffffffffffffffffffffffffffffffffffff168173ffffffffffffffffffffffffffffffffffffffff1603610ebe57600060016000801b93509350935050610ecd565b8060008060001b935093509350505b9450945094915050565b600081511115610eea5780518082602001fd5b6040517f1425ea4200000000000000000000000000000000000000000000000000000000815260040160405180910390fd5b6000604051905090565b600080fd5b600080fd5b600080fd5b60006101608284031215610f4c57610f4b610f30565b5b81905092915050565b6000819050919050565b610f6881610f55565b8114610f7357600080fd5b50565b600081359050610f8581610f5f565b92915050565b6000819050919050565b610f9e81610f8b565b8114610fa957600080fd5b50565b600081359050610fbb81610f95565b92915050565b600080600060608486031215610fda57610fd9610f26565b5b600084013567ffffffffffffffff811115610ff857610ff7610f2b565b5b61100486828701610f35565b935050602061101586828701610f76565b925050604061102686828701610fac565b9150509250925092565b61103981610f8b565b82525050565b60006020820190506110546000830184611030565b92915050565b600073ffffffffffffffffffffffffffffffffffffffff82169050919050565b60006110858261105a565b9050919050565b6110958161107a565b82525050565b60006020820190506110b0600083018461108c565b92915050565b6000819050919050565b60006110db6110d66110d18461105a565b6110b6565b61105a565b9050919050565b60006110ed826110c0565b9050919050565b60006110ff826110e2565b9050919050565b61110f816110f4565b82525050565b600060208201905061112a6000830184611106565b92915050565b6111398161107a565b811461114457600080fd5b50565b60008135905061115681611130565b92915050565b600080fd5b600080fd5b6000601f19601f8301169050919050565b7f4e487b7100000000000000000000000000000000000000000000000000000000600052604160045260246000fd5b6111af82611166565b810181811067ffffffffffffffff821117156111ce576111cd611177565b5b80604052505050565b60006111e1610f1c565b90506111ed82826111a6565b919050565b600067ffffffffffffffff82111561120d5761120c611177565b5b61121682611166565b9050602081019050919050565b82818337600083830152505050565b6000611245611240846111f2565b6111d7565b90508281526020810184848401111561126157611260611161565b5b61126c848285611223565b509392505050565b600082601f8301126112895761128861115c565b5b8135611299848260208601611232565b91505092915050565b600080604083850312156112b9576112b8610f26565b5b60006112c785828601611147565b925050602083013567ffffffffffffffff8111156112e8576112e7610f2b565b5b6112f485828601611274565b9150509250929050565b60006020828403121561131457611313610f26565b5b600061132284828501611147565b91505092915050565b6000819050919050565b600077ffffffffffffffffffffffffffffffffffffffffffffffff82169050919050565b600061137461136f61136a8461132b565b6110b6565b611335565b9050919050565b61138481611359565b82525050565b600060408201905061139f600083018561108c565b6113ac602083018461137b565b9392505050565b6000815190506113c281610f95565b92915050565b6000602082840312156113de576113dd610f26565b5b60006113ec848285016113b3565b91505092915050565b6000819050919050565b600067ffffffffffffffff82169050919050565b600061142e611429611424846113f5565b6110b6565b6113ff565b9050919050565b61143e81611413565b82525050565b60006020820190506114596000830184611435565b92915050565b60008151905061146e81611130565b92915050565b60006020828403121561148a57611489610f26565b5b60006114988482850161145f565b91505092915050565b600082825260208201905092915050565b7f6163636f756e743a206e6f742066726f6d20456e747279506f696e7400000000600082015250565b60006114e8601c836114a1565b91506114f3826114b2565b602082019050919050565b60006020820190508181036000830152611517816114db565b9050919050565b600080fd5b600080fd5b600080fd5b6000808335600160200384360303811261154a5761154961151e565b5b80840192508235915067ffffffffffffffff82111561156c5761156b611523565b5b60208301925060018202360383131561158857611587611528565b5b509250929050565b600081905092915050565b50565b60006115ab600083611590565b91506115b68261159b565b600082019050919050565b60006115cc8261159e565b9150819050919050565b600081519050919050565b60005b838110156115ff5780820151818401526020810190506115e4565b60008484015250505050565b6000611616826115d6565b6116208185611590565b93506116308185602086016115e1565b80840191505092915050565b6000611648828461160b565b915081905092915050565b7f4e487b7100000000000000000000000000000000000000000000000000000000600052602160045260246000fd5b61168b81610f55565b82525050565b60006020820190506116a66000830184611682565b92915050565b600060ff82169050919050565b6116c2816116ac565b82525050565b60006080820190506116dd6000830187611682565b6116ea60208301866116b9565b6116f76040830185611682565b6117046060830184611682565b9594505050505056fea26469706673582212205088a0d00d8bdfabf3e189aab493f77662de0bd15a088c9f1f133fcbe09ef57a64736f6c63430008150033a26469706673582212204d4898e0d9890242000c2920848dd70cfb99ac2cc90d8123e58d72c80b7bbe7d64736f6c63430008150033",
  "devdoc": {
    "errors": {
      "ERC1167FailedCreateClone()": [
        {
          "details": "A clone instance deployment failed."
        }
      ],
      "InvalidInitialization()": [
        {
          "details": "The contract is already initialized."
        }
      ],
      "NotInitializing()": [
        {
          "details": "The contract is not initializing."
        }
      ],
      "OwnableInvalidOwner(address)": [
        {
          "details": "The owner is not a valid owner account. (eg. `address(0)`)"
        }
      ],
      "OwnableUnauthorizedAccount(address)": [
        {
          "details": "The caller account is not authorized to perform an operation."
        }
      ]
    },
    "events": {
      "Initialized(uint64)": {
        "details": "Triggered when the contract has been initialized or reinitialized."
      }
    },
    "kind": "dev",
    "methods": {
      "addStake(uint32)": {
        "params": {
          "unstakeDelaySec": "- The unstake delay for this paymaster. Can only be increased."
        }
      },
      "implementation()": {
        "details": "Must return an address that can be used as a delegate call target. {UpgradeableBeacon} will check that this address is a contract."
      },
      "owner()": {
        "details": "Returns the address of the current owner."
      },
      "renounceOwnership()": {
        "details": "Leaves the contract without owner. It will not be possible to call `onlyOwner` functions. Can only be called by the current owner. NOTE: Renouncing ownership will leave the contract without an owner, thereby disabling any functionality that is only available to the owner."
      },
      "transferOwnership(address)": {
        "details": "Transfers ownership of the contract to a new account (`newOwner`). Can only be called by the current owner."
      },
      "withdrawStake(address)": {
        "params": {
          "withdrawAddress": "- The address to send withdrawn value."
        }
      }
    },
    "version": 1
  },
  "userdoc": {
    "kind": "user",
    "methods": {
      "addStake(uint32)": {
        "notice": "Add stake for this paymaster. This method can also carry eth value to add to the current stake."
      },
      "unlockStake()": {
        "notice": "Unlock the stake, in order to withdraw it. The paymaster can't serve requests once unlocked, until it calls addStake again"
      },
      "withdrawStake(address)": {
        "notice": "Withdraw the entire paymaster's stake. stake must be unlocked first (and then wait for the unstakeDelay to be over)"
      }
    },
    "version": 1
  },
  "storageLayout": {
    "storage": [
      {
        "astId": 4692,
        "contract": "contracts/sample/AccountFactory.sol:AccountFactory",
        "label": "_beaconProxy",
        "offset": 0,
        "slot": "0",
        "type": "t_contract(AccountBeaconProxy)4656"
      },
      {
        "astId": 4696,
        "contract": "contracts/sample/AccountFactory.sol:AccountFactory",
        "label": "_implementation",
        "offset": 0,
        "slot": "1",
        "type": "t_address"
      }
    ],
    "types": {
      "t_address": {
        "encoding": "inplace",
        "label": "address",
        "numberOfBytes": "20"
      },
      "t_contract(AccountBeaconProxy)4656": {
        "encoding": "inplace",
        "label": "contract AccountBeaconProxy",
        "numberOfBytes": "20"
      }
    }
  }
}