{
  "address": "0x70837969f15e6c0a9e17270C29712582DF11BE89",
  "abi": [
    {
      "inputs": [
        {
          "internalType": "uint8",
          "name": "_accountVersion",
          "type": "uint8"
        },
        {
          "internalType": "address",
          "name": "_entryPoint",
          "type": "address"
        }
      ],
      "stateMutability": "nonpayable",
      "type": "constructor"
    },
    {
      "inputs": [],
      "name": "InvalidInitialization",
      "type": "error"
    },
    {
      "inputs": [],
      "name": "InvalidSender",
      "type": "error"
    },
    {
      "inputs": [],
      "name": "NotInitializing",
      "type": "error"
    },
    {
      "inputs": [
        {
          "internalType": "address",
          "name": "owner",
          "type": "address"
        }
      ],
      "name": "OwnableInvalidOwner",
      "type": "error"
    },
    {
      "inputs": [
        {
          "internalType": "address",
          "name": "account",
          "type": "address"
        }
      ],
      "name": "OwnableUnauthorizedAccount",
      "type": "error"
    },
    {
      "inputs": [],
      "name": "ReentrancyGuardReentrantCall",
      "type": "error"
    },
    {
      "anonymous": false,
      "inputs": [
        {
          "indexed": false,
          "internalType": "uint64",
          "name": "version",
          "type": "uint64"
        }
      ],
      "name": "Initialized",
      "type": "event"
    },
    {
      "anonymous": false,
      "inputs": [
        {
          "indexed": true,
          "internalType": "address",
          "name": "previousOwner",
          "type": "address"
        },
        {
          "indexed": true,
          "internalType": "address",
          "name": "newOwner",
          "type": "address"
        }
      ],
      "name": "OwnershipTransferred",
      "type": "event"
    },
    {
      "inputs": [],
      "name": "entryPoint",
      "outputs": [
        {
          "internalType": "address",
          "name": "",
          "type": "address"
        }
      ],
      "stateMutability": "view",
      "type": "function"
    },
    {
      "inputs": [
        {
          "internalType": "address",
          "name": "dest",
          "type": "address"
        },
        {
          "internalType": "uint256",
          "name": "value",
          "type": "uint256"
        },
        {
          "internalType": "bytes",
          "name": "func",
          "type": "bytes"
        }
      ],
      "name": "execute",
      "outputs": [],
      "stateMutability": "nonpayable",
      "type": "function"
    },
    {
      "inputs": [
        {
          "internalType": "address[]",
          "name": "dest",
          "type": "address[]"
        },
        {
          "internalType": "uint256[]",
          "name": "value",
          "type": "uint256[]"
        },
        {
          "internalType": "bytes[]",
          "name": "func",
          "type": "bytes[]"
        }
      ],
      "name": "executeBatch",
      "outputs": [],
      "stateMutability": "nonpayable",
      "type": "function"
    },
    {
      "inputs": [
        {
          "internalType": "address",
          "name": "accountOwner",
          "type": "address"
        }
      ],
      "name": "initialize",
      "outputs": [],
      "stateMutability": "nonpayable",
      "type": "function"
    },
    {
      "inputs": [],
      "name": "owner",
      "outputs": [
        {
          "internalType": "address",
          "name": "",
          "type": "address"
        }
      ],
      "stateMutability": "view",
      "type": "function"
    },
    {
      "inputs": [],
      "name": "renounceOwnership",
      "outputs": [],
      "stateMutability": "nonpayable",
      "type": "function"
    },
    {
      "inputs": [
        {
          "internalType": "address",
          "name": "newOwner",
          "type": "address"
        }
      ],
      "name": "transferOwnership",
      "outputs": [],
      "stateMutability": "nonpayable",
      "type": "function"
    },
    {
      "inputs": [],
      "name": "version",
      "outputs": [
        {
          "internalType": "uint8",
          "name": "",
          "type": "uint8"
        }
      ],
      "stateMutability": "view",
      "type": "function"
    }
  ],
  "transactionHash": "0xece74113ff72c0e13fab74c0a7c44fd031308d1cd02bba9def7c2f6a4c71407e",
  "args": [
    0,
    "0x5FF137D4b0FDCD49DcA30c7CF57E578a026d2789"
  ],
  "numDeployments": 1,
  "solcInputHash": "78dd4051d8c1a129b39d156af621dd4d",
  "bytecode": "0x60c06040523480156200001157600080fd5b50604051620012ee380380620012ee83398181016040528101906200003791906200026b565b8160ff1660808160ff16815250508073ffffffffffffffffffffffffffffffffffffffff1660a08173ffffffffffffffffffffffffffffffffffffffff1681525050620000896200009160201b60201c565b5050620002f4565b6000620000a36200019b60201b60201c565b90508060000160089054906101000a900460ff1615620000ef576040517ff92ee8a900000000000000000000000000000000000000000000000000000000815260040160405180910390fd5b67ffffffffffffffff80168160000160009054906101000a900467ffffffffffffffff1667ffffffffffffffff1614620001985767ffffffffffffffff8160000160006101000a81548167ffffffffffffffff021916908367ffffffffffffffff1602179055507fc7f505b2f371ae2175ee4913f4499e1f2633a7b5936321eed1cdaeb6115181d267ffffffffffffffff6040516200018f9190620002d7565b60405180910390a15b50565b60007ff0c57e16840df040f15088dc2f81fe391c3923bec73e23a9662efc9c229c6a00905090565b600080fd5b600060ff82169050919050565b620001e081620001c8565b8114620001ec57600080fd5b50565b6000815190506200020081620001d5565b92915050565b600073ffffffffffffffffffffffffffffffffffffffff82169050919050565b6000620002338262000206565b9050919050565b620002458162000226565b81146200025157600080fd5b50565b60008151905062000265816200023a565b92915050565b60008060408385031215620002855762000284620001c3565b5b60006200029585828601620001ef565b9250506020620002a88582860162000254565b9150509250929050565b600067ffffffffffffffff82169050919050565b620002d181620002b2565b82525050565b6000602082019050620002ee6000830184620002c6565b92915050565b60805160a051610fc66200032860003960008181610163015281816104ad01526104d10152600061043b0152610fc66000f3fe608060405234801561001057600080fd5b50600436106100885760003560e01c8063b0d691fe1161005b578063b0d691fe146100ef578063b61d27f61461010d578063c4d66de814610129578063f2fde38b1461014557610088565b806347e1da2a1461008d57806354fd4d50146100a9578063715018a6146100c75780638da5cb5b146100d1575b600080fd5b6100a760048036038101906100a29190610ad3565b610161565b005b6100b1610437565b6040516100be9190610ba3565b60405180910390f35b6100cf61045f565b005b6100d9610473565b6040516100e69190610bff565b60405180910390f35b6100f76104ab565b6040516101049190610bff565b60405180910390f35b61012760048036038101906101229190610cd2565b6104cf565b005b610143600480360381019061013e9190610d46565b6105ea565b005b61015f600480360381019061015a9190610d46565b6105fe565b005b7f000000000000000000000000000000000000000000000000000000000000000073ffffffffffffffffffffffffffffffffffffffff163373ffffffffffffffffffffffffffffffffffffffff16141580156101f057506101c0610473565b73ffffffffffffffffffffffffffffffffffffffff163373ffffffffffffffffffffffffffffffffffffffff1614155b15610227576040517fddb5de5e00000000000000000000000000000000000000000000000000000000815260040160405180910390fd5b818190508686905014801561024f5750600084849050148061024e57508181905084849050145b5b61028e576040517f08c379a000000000000000000000000000000000000000000000000000000000815260040161028590610dd0565b60405180910390fd5b6000848490500361035a5760005b86869050811015610354576103418787838181106102bd576102bc610df0565b5b90506020020160208101906102d29190610d46565b60008585858181106102e7576102e6610df0565b5b90506020028101906102f99190610e2e565b8080601f016020809104026020016040519081016040528093929190818152602001838380828437600081840152601f19601f82011690508083019250505050505050610684565b808061034c90610ec0565b91505061029c565b5061042f565b60005b8686905081101561042d5761041a87878381811061037e5761037d610df0565b5b90506020020160208101906103939190610d46565b8686848181106103a6576103a5610df0565b5b905060200201358585858181106103c0576103bf610df0565b5b90506020028101906103d29190610e2e565b8080601f016020809104026020016040519081016040528093929190818152602001838380828437600081840152601f19601f82011690508083019250505050505050610684565b808061042590610ec0565b91505061035d565b505b505050505050565b60007f0000000000000000000000000000000000000000000000000000000000000000905090565b610467610708565b610471600061078f565b565b60008061047e610866565b90508060000160009054906101000a900473ffffffffffffffffffffffffffffffffffffffff1691505090565b7f000000000000000000000000000000000000000000000000000000000000000081565b7f000000000000000000000000000000000000000000000000000000000000000073ffffffffffffffffffffffffffffffffffffffff163373ffffffffffffffffffffffffffffffffffffffff161415801561055e575061052e610473565b73ffffffffffffffffffffffffffffffffffffffff163373ffffffffffffffffffffffffffffffffffffffff1614155b15610595576040517fddb5de5e00000000000000000000000000000000000000000000000000000000815260040160405180910390fd5b6105e4848484848080601f016020809104026020016040519081016040528093929190818152602001838380828437600081840152601f19601f82011690508083019250505050505050610684565b50505050565b6105f261088e565b6105fb816108ce565b50565b610606610708565b600073ffffffffffffffffffffffffffffffffffffffff168173ffffffffffffffffffffffffffffffffffffffff16036106785760006040517f1e4fbdf700000000000000000000000000000000000000000000000000000000815260040161066f9190610bff565b60405180910390fd5b6106818161078f565b50565b6000808473ffffffffffffffffffffffffffffffffffffffff1684846040516106ad9190610f79565b60006040518083038185875af1925050503d80600081146106ea576040519150601f19603f3d011682016040523d82523d6000602084013e6106ef565b606091505b50915091508161070157805160208201fd5b5050505050565b6107106108e2565b73ffffffffffffffffffffffffffffffffffffffff1661072e610473565b73ffffffffffffffffffffffffffffffffffffffff161461078d576107516108e2565b6040517f118cdaa70000000000000000000000000000000000000000000000000000000081526004016107849190610bff565b60405180910390fd5b565b6000610799610866565b905060008160000160009054906101000a900473ffffffffffffffffffffffffffffffffffffffff169050828260000160006101000a81548173ffffffffffffffffffffffffffffffffffffffff021916908373ffffffffffffffffffffffffffffffffffffffff1602179055508273ffffffffffffffffffffffffffffffffffffffff168173ffffffffffffffffffffffffffffffffffffffff167f8be0079c531659141344cd1fd0a4f28419497f9722a3daafe3b4186f6b6457e060405160405180910390a3505050565b60007f9016d09d72d40fdae2fd8ceac6b6234c7706214fd39c1cd1e609a0528c199300905090565b6108966108ea565b6108cc576040517fd7e6bcf800000000000000000000000000000000000000000000000000000000815260040160405180910390fd5b565b6108d661088e565b6108df8161090a565b50565b600033905090565b60006108f4610990565b60000160089054906101000a900460ff16905090565b61091261088e565b600073ffffffffffffffffffffffffffffffffffffffff168173ffffffffffffffffffffffffffffffffffffffff16036109845760006040517f1e4fbdf700000000000000000000000000000000000000000000000000000000815260040161097b9190610bff565b60405180910390fd5b61098d8161078f565b50565b60007ff0c57e16840df040f15088dc2f81fe391c3923bec73e23a9662efc9c229c6a00905090565b600080fd5b600080fd5b600080fd5b600080fd5b600080fd5b60008083601f8401126109e7576109e66109c2565b5b8235905067ffffffffffffffff811115610a0457610a036109c7565b5b602083019150836020820283011115610a2057610a1f6109cc565b5b9250929050565b60008083601f840112610a3d57610a3c6109c2565b5b8235905067ffffffffffffffff811115610a5a57610a596109c7565b5b602083019150836020820283011115610a7657610a756109cc565b5b9250929050565b60008083601f840112610a9357610a926109c2565b5b8235905067ffffffffffffffff811115610ab057610aaf6109c7565b5b602083019150836020820283011115610acc57610acb6109cc565b5b9250929050565b60008060008060008060608789031215610af057610aef6109b8565b5b600087013567ffffffffffffffff811115610b0e57610b0d6109bd565b5b610b1a89828a016109d1565b9650965050602087013567ffffffffffffffff811115610b3d57610b3c6109bd565b5b610b4989828a01610a27565b9450945050604087013567ffffffffffffffff811115610b6c57610b6b6109bd565b5b610b7889828a01610a7d565b92509250509295509295509295565b600060ff82169050919050565b610b9d81610b87565b82525050565b6000602082019050610bb86000830184610b94565b92915050565b600073ffffffffffffffffffffffffffffffffffffffff82169050919050565b6000610be982610bbe565b9050919050565b610bf981610bde565b82525050565b6000602082019050610c146000830184610bf0565b92915050565b610c2381610bde565b8114610c2e57600080fd5b50565b600081359050610c4081610c1a565b92915050565b6000819050919050565b610c5981610c46565b8114610c6457600080fd5b50565b600081359050610c7681610c50565b92915050565b60008083601f840112610c9257610c916109c2565b5b8235905067ffffffffffffffff811115610caf57610cae6109c7565b5b602083019150836001820283011115610ccb57610cca6109cc565b5b9250929050565b60008060008060608587031215610cec57610ceb6109b8565b5b6000610cfa87828801610c31565b9450506020610d0b87828801610c67565b935050604085013567ffffffffffffffff811115610d2c57610d2b6109bd565b5b610d3887828801610c7c565b925092505092959194509250565b600060208284031215610d5c57610d5b6109b8565b5b6000610d6a84828501610c31565b91505092915050565b600082825260208201905092915050565b7f77726f6e67206172726179206c656e6774687300000000000000000000000000600082015250565b6000610dba601383610d73565b9150610dc582610d84565b602082019050919050565b60006020820190508181036000830152610de981610dad565b9050919050565b7f4e487b7100000000000000000000000000000000000000000000000000000000600052603260045260246000fd5b600080fd5b600080fd5b600080fd5b60008083356001602003843603038112610e4b57610e4a610e1f565b5b80840192508235915067ffffffffffffffff821115610e6d57610e6c610e24565b5b602083019250600182023603831315610e8957610e88610e29565b5b509250929050565b7f4e487b7100000000000000000000000000000000000000000000000000000000600052601160045260246000fd5b6000610ecb82610c46565b91507fffffffffffffffffffffffffffffffffffffffffffffffffffffffffffffffff8203610efd57610efc610e91565b5b600182019050919050565b600081519050919050565b600081905092915050565b60005b83811015610f3c578082015181840152602081019050610f21565b60008484015250505050565b6000610f5382610f08565b610f5d8185610f13565b9350610f6d818560208601610f1e565b80840191505092915050565b6000610f858284610f48565b91508190509291505056fea264697066735822122044397483f334038bc1efb1f09afb4865fcd1d0f769694f5f39bf45b9a8a281d664736f6c63430008150033",
  "devdoc": {
    "errors": {
      "InvalidInitialization()": [
        {
          "details": "The contract is already initialized."
        }
      ],
      "NotInitializing()": [
        {
          "details": "The contract is not initializing."
        }
      ],
      "OwnableInvalidOwner(address)": [
        {
          "details": "The owner is not a valid owner account. (eg. `address(0)`)"
        }
      ],
      "OwnableUnauthorizedAccount(address)": [
        {
          "details": "The caller account is not authorized to perform an operation."
        }
      ],
      "ReentrancyGuardReentrantCall()": [
        {
          "details": "Unauthorized reentrant call."
        }
      ]
    },
    "events": {
      "Initialized(uint64)": {
        "details": "Triggered when the contract has been initialized or reinitialized."
      }
    },
    "kind": "dev",
    "methods": {
      "execute(address,uint256,bytes)": {
        "params": {
          "dest": "destination address to call",
          "func": "the calldata to pass in this call",
          "value": "the value to pass in this call"
        }
      },
      "executeBatch(address[],uint256[],bytes[])": {
        "details": "to reduce gas consumption for trivial case (no value), use a zero-length array to mean zero value",
        "params": {
          "dest": "an array of destination addresses",
          "func": "an array of calldata to pass to each call",
          "value": "an array of values to pass to each call. can be zero-length for no-value calls"
        }
      },
      "owner()": {
        "details": "Returns the address of the current owner."
      },
      "renounceOwnership()": {
        "details": "Leaves the contract without owner. It will not be possible to call `onlyOwner` functions. Can only be called by the current owner. NOTE: Renouncing ownership will leave the contract without an owner, thereby disabling any functionality that is only available to the owner."
      },
      "transferOwnership(address)": {
        "details": "Transfers ownership of the contract to a new account (`newOwner`). Can only be called by the current owner."
      }
    },
    "version": 1
  },
  "userdoc": {
    "kind": "user",
    "methods": {
      "execute(address,uint256,bytes)": {
        "notice": "Execute a transaction (called directly from owner, or by entryPoint)"
      },
      "executeBatch(address[],uint256[],bytes[])": {
        "notice": "Execute a sequence of transactions"
      }
    },
    "version": 1
  },
  "storageLayout": {
    "storage": [],
    "types": null
  }
}