{
  "address": "0x6Dccd7538feE888CA58c5e0561fE9ec60F9CF48C",
  "abi": [
    {
      "inputs": [
        {
          "internalType": "uint8",
          "name": "_accountVersion",
          "type": "uint8"
        },
        {
          "internalType": "address",
          "name": "_entryPoint",
          "type": "address"
        }
      ],
      "stateMutability": "nonpayable",
      "type": "constructor"
    },
    {
      "inputs": [],
      "name": "InvalidInitialization",
      "type": "error"
    },
    {
      "inputs": [],
      "name": "InvalidSender",
      "type": "error"
    },
    {
      "inputs": [],
      "name": "NotInitializing",
      "type": "error"
    },
    {
      "inputs": [
        {
          "internalType": "address",
          "name": "owner",
          "type": "address"
        }
      ],
      "name": "OwnableInvalidOwner",
      "type": "error"
    },
    {
      "inputs": [
        {
          "internalType": "address",
          "name": "account",
          "type": "address"
        }
      ],
      "name": "OwnableUnauthorizedAccount",
      "type": "error"
    },
    {
      "inputs": [],
      "name": "ReentrancyGuardReentrantCall",
      "type": "error"
    },
    {
      "anonymous": false,
      "inputs": [
        {
          "indexed": false,
          "internalType": "uint64",
          "name": "version",
          "type": "uint64"
        }
      ],
      "name": "Initialized",
      "type": "event"
    },
    {
      "anonymous": false,
      "inputs": [
        {
          "indexed": true,
          "internalType": "address",
          "name": "previousOwner",
          "type": "address"
        },
        {
          "indexed": true,
          "internalType": "address",
          "name": "newOwner",
          "type": "address"
        }
      ],
      "name": "OwnershipTransferred",
      "type": "event"
    },
    {
      "inputs": [],
      "name": "entryPoint",
      "outputs": [
        {
          "internalType": "address",
          "name": "",
          "type": "address"
        }
      ],
      "stateMutability": "view",
      "type": "function"
    },
    {
      "inputs": [
        {
          "internalType": "address",
          "name": "dest",
          "type": "address"
        },
        {
          "internalType": "uint256",
          "name": "value",
          "type": "uint256"
        },
        {
          "internalType": "bytes",
          "name": "func",
          "type": "bytes"
        }
      ],
      "name": "execute",
      "outputs": [],
      "stateMutability": "nonpayable",
      "type": "function"
    },
    {
      "inputs": [
        {
          "internalType": "address[]",
          "name": "dest",
          "type": "address[]"
        },
        {
          "internalType": "uint256[]",
          "name": "value",
          "type": "uint256[]"
        },
        {
          "internalType": "bytes[]",
          "name": "func",
          "type": "bytes[]"
        }
      ],
      "name": "executeBatch",
      "outputs": [],
      "stateMutability": "nonpayable",
      "type": "function"
    },
    {
      "inputs": [],
      "name": "owner",
      "outputs": [
        {
          "internalType": "address",
          "name": "",
          "type": "address"
        }
      ],
      "stateMutability": "view",
      "type": "function"
    },
    {
      "inputs": [],
      "name": "renounceOwnership",
      "outputs": [],
      "stateMutability": "nonpayable",
      "type": "function"
    },
    {
      "inputs": [
        {
          "internalType": "address",
          "name": "newOwner",
          "type": "address"
        }
      ],
      "name": "transferOwnership",
      "outputs": [],
      "stateMutability": "nonpayable",
      "type": "function"
    },
    {
      "inputs": [],
      "name": "version",
      "outputs": [
        {
          "internalType": "uint8",
          "name": "",
          "type": "uint8"
        }
      ],
      "stateMutability": "view",
      "type": "function"
    }
  ],
  "transactionHash": "0xbcba7916f6393538b7edb6774de7e19672f272905dd6ddb404606c7e98131bb8",
  "args": [
    0,
    "0x5FF137D4b0FDCD49DcA30c7CF57E578a026d2789"
  ],
  "numDeployments": 1,
  "solcInputHash": "f49b66f6aae71e4d8dbb9134853a76cf",
  "bytecode": "0x60c06040523480156200001157600080fd5b50604051620011913803806200119183398181016040528101906200003791906200026b565b8160ff1660808160ff16815250508073ffffffffffffffffffffffffffffffffffffffff1660a08173ffffffffffffffffffffffffffffffffffffffff1681525050620000896200009160201b60201c565b5050620002f4565b6000620000a36200019b60201b60201c565b90508060000160089054906101000a900460ff1615620000ef576040517ff92ee8a900000000000000000000000000000000000000000000000000000000815260040160405180910390fd5b67ffffffffffffffff80168160000160009054906101000a900467ffffffffffffffff1667ffffffffffffffff1614620001985767ffffffffffffffff8160000160006101000a81548167ffffffffffffffff021916908367ffffffffffffffff1602179055507fc7f505b2f371ae2175ee4913f4499e1f2633a7b5936321eed1cdaeb6115181d267ffffffffffffffff6040516200018f9190620002d7565b60405180910390a15b50565b60007ff0c57e16840df040f15088dc2f81fe391c3923bec73e23a9662efc9c229c6a00905090565b600080fd5b600060ff82169050919050565b620001e081620001c8565b8114620001ec57600080fd5b50565b6000815190506200020081620001d5565b92915050565b600073ffffffffffffffffffffffffffffffffffffffff82169050919050565b6000620002338262000206565b9050919050565b620002458162000226565b81146200025157600080fd5b50565b60008151905062000265816200023a565b92915050565b60008060408385031215620002855762000284620001c3565b5b60006200029585828601620001ef565b9250506020620002a88582860162000254565b9150509250929050565b600067ffffffffffffffff82169050919050565b620002d181620002b2565b82525050565b6000602082019050620002ee6000830184620002c6565b92915050565b60805160a051610e69620003286000396000818161013c0152818161048601526104aa015260006104140152610e696000f3fe608060405234801561001057600080fd5b506004361061007d5760003560e01c80638da5cb5b1161005b5780638da5cb5b146100c6578063b0d691fe146100e4578063b61d27f614610102578063f2fde38b1461011e5761007d565b806347e1da2a1461008257806354fd4d501461009e578063715018a6146100bc575b600080fd5b61009c60048036038101906100979190610976565b61013a565b005b6100a6610410565b6040516100b39190610a46565b60405180910390f35b6100c4610438565b005b6100ce61044c565b6040516100db9190610aa2565b60405180910390f35b6100ec610484565b6040516100f99190610aa2565b60405180910390f35b61011c60048036038101906101179190610b75565b6104a8565b005b61013860048036038101906101339190610be9565b6105c3565b005b7f000000000000000000000000000000000000000000000000000000000000000073ffffffffffffffffffffffffffffffffffffffff163373ffffffffffffffffffffffffffffffffffffffff16141580156101c9575061019961044c565b73ffffffffffffffffffffffffffffffffffffffff163373ffffffffffffffffffffffffffffffffffffffff1614155b15610200576040517fddb5de5e00000000000000000000000000000000000000000000000000000000815260040160405180910390fd5b81819050868690501480156102285750600084849050148061022757508181905084849050145b5b610267576040517f08c379a000000000000000000000000000000000000000000000000000000000815260040161025e90610c73565b60405180910390fd5b600084849050036103335760005b8686905081101561032d5761031a87878381811061029657610295610c93565b5b90506020020160208101906102ab9190610be9565b60008585858181106102c0576102bf610c93565b5b90506020028101906102d29190610cd1565b8080601f016020809104026020016040519081016040528093929190818152602001838380828437600081840152601f19601f82011690508083019250505050505050610649565b808061032590610d63565b915050610275565b50610408565b60005b86869050811015610406576103f387878381811061035757610356610c93565b5b905060200201602081019061036c9190610be9565b86868481811061037f5761037e610c93565b5b9050602002013585858581811061039957610398610c93565b5b90506020028101906103ab9190610cd1565b8080601f016020809104026020016040519081016040528093929190818152602001838380828437600081840152601f19601f82011690508083019250505050505050610649565b80806103fe90610d63565b915050610336565b505b505050505050565b60007f0000000000000000000000000000000000000000000000000000000000000000905090565b6104406106cd565b61044a6000610754565b565b60008061045761082b565b90508060000160009054906101000a900473ffffffffffffffffffffffffffffffffffffffff1691505090565b7f000000000000000000000000000000000000000000000000000000000000000081565b7f000000000000000000000000000000000000000000000000000000000000000073ffffffffffffffffffffffffffffffffffffffff163373ffffffffffffffffffffffffffffffffffffffff1614158015610537575061050761044c565b73ffffffffffffffffffffffffffffffffffffffff163373ffffffffffffffffffffffffffffffffffffffff1614155b1561056e576040517fddb5de5e00000000000000000000000000000000000000000000000000000000815260040160405180910390fd5b6105bd848484848080601f016020809104026020016040519081016040528093929190818152602001838380828437600081840152601f19601f82011690508083019250505050505050610649565b50505050565b6105cb6106cd565b600073ffffffffffffffffffffffffffffffffffffffff168173ffffffffffffffffffffffffffffffffffffffff160361063d5760006040517f1e4fbdf70000000000000000000000000000000000000000000000000000000081526004016106349190610aa2565b60405180910390fd5b61064681610754565b50565b6000808473ffffffffffffffffffffffffffffffffffffffff1684846040516106729190610e1c565b60006040518083038185875af1925050503d80600081146106af576040519150601f19603f3d011682016040523d82523d6000602084013e6106b4565b606091505b5091509150816106c657805160208201fd5b5050505050565b6106d5610853565b73ffffffffffffffffffffffffffffffffffffffff166106f361044c565b73ffffffffffffffffffffffffffffffffffffffff161461075257610716610853565b6040517f118cdaa70000000000000000000000000000000000000000000000000000000081526004016107499190610aa2565b60405180910390fd5b565b600061075e61082b565b905060008160000160009054906101000a900473ffffffffffffffffffffffffffffffffffffffff169050828260000160006101000a81548173ffffffffffffffffffffffffffffffffffffffff021916908373ffffffffffffffffffffffffffffffffffffffff1602179055508273ffffffffffffffffffffffffffffffffffffffff168173ffffffffffffffffffffffffffffffffffffffff167f8be0079c531659141344cd1fd0a4f28419497f9722a3daafe3b4186f6b6457e060405160405180910390a3505050565b60007f9016d09d72d40fdae2fd8ceac6b6234c7706214fd39c1cd1e609a0528c199300905090565b600033905090565b600080fd5b600080fd5b600080fd5b600080fd5b600080fd5b60008083601f84011261088a57610889610865565b5b8235905067ffffffffffffffff8111156108a7576108a661086a565b5b6020830191508360208202830111156108c3576108c261086f565b5b9250929050565b60008083601f8401126108e0576108df610865565b5b8235905067ffffffffffffffff8111156108fd576108fc61086a565b5b6020830191508360208202830111156109195761091861086f565b5b9250929050565b60008083601f84011261093657610935610865565b5b8235905067ffffffffffffffff8111156109535761095261086a565b5b60208301915083602082028301111561096f5761096e61086f565b5b9250929050565b600080600080600080606087890312156109935761099261085b565b5b600087013567ffffffffffffffff8111156109b1576109b0610860565b5b6109bd89828a01610874565b9650965050602087013567ffffffffffffffff8111156109e0576109df610860565b5b6109ec89828a016108ca565b9450945050604087013567ffffffffffffffff811115610a0f57610a0e610860565b5b610a1b89828a01610920565b92509250509295509295509295565b600060ff82169050919050565b610a4081610a2a565b82525050565b6000602082019050610a5b6000830184610a37565b92915050565b600073ffffffffffffffffffffffffffffffffffffffff82169050919050565b6000610a8c82610a61565b9050919050565b610a9c81610a81565b82525050565b6000602082019050610ab76000830184610a93565b92915050565b610ac681610a81565b8114610ad157600080fd5b50565b600081359050610ae381610abd565b92915050565b6000819050919050565b610afc81610ae9565b8114610b0757600080fd5b50565b600081359050610b1981610af3565b92915050565b60008083601f840112610b3557610b34610865565b5b8235905067ffffffffffffffff811115610b5257610b5161086a565b5b602083019150836001820283011115610b6e57610b6d61086f565b5b9250929050565b60008060008060608587031215610b8f57610b8e61085b565b5b6000610b9d87828801610ad4565b9450506020610bae87828801610b0a565b935050604085013567ffffffffffffffff811115610bcf57610bce610860565b5b610bdb87828801610b1f565b925092505092959194509250565b600060208284031215610bff57610bfe61085b565b5b6000610c0d84828501610ad4565b91505092915050565b600082825260208201905092915050565b7f77726f6e67206172726179206c656e6774687300000000000000000000000000600082015250565b6000610c5d601383610c16565b9150610c6882610c27565b602082019050919050565b60006020820190508181036000830152610c8c81610c50565b9050919050565b7f4e487b7100000000000000000000000000000000000000000000000000000000600052603260045260246000fd5b600080fd5b600080fd5b600080fd5b60008083356001602003843603038112610cee57610ced610cc2565b5b80840192508235915067ffffffffffffffff821115610d1057610d0f610cc7565b5b602083019250600182023603831315610d2c57610d2b610ccc565b5b509250929050565b7f4e487b7100000000000000000000000000000000000000000000000000000000600052601160045260246000fd5b6000610d6e82610ae9565b91507fffffffffffffffffffffffffffffffffffffffffffffffffffffffffffffffff8203610da057610d9f610d34565b5b600182019050919050565b600081519050919050565b600081905092915050565b60005b83811015610ddf578082015181840152602081019050610dc4565b60008484015250505050565b6000610df682610dab565b610e008185610db6565b9350610e10818560208601610dc1565b80840191505092915050565b6000610e288284610deb565b91508190509291505056fea2646970667358221220b5996c8af77054b619f1a25d48f5d2c1ca27cfd935159ad4314fedd4dbce70f364736f6c63430008150033",
  "devdoc": {
    "errors": {
      "InvalidInitialization()": [
        {
          "details": "The contract is already initialized."
        }
      ],
      "NotInitializing()": [
        {
          "details": "The contract is not initializing."
        }
      ],
      "OwnableInvalidOwner(address)": [
        {
          "details": "The owner is not a valid owner account. (eg. `address(0)`)"
        }
      ],
      "OwnableUnauthorizedAccount(address)": [
        {
          "details": "The caller account is not authorized to perform an operation."
        }
      ],
      "ReentrancyGuardReentrantCall()": [
        {
          "details": "Unauthorized reentrant call."
        }
      ]
    },
    "events": {
      "Initialized(uint64)": {
        "details": "Triggered when the contract has been initialized or reinitialized."
      }
    },
    "kind": "dev",
    "methods": {
      "execute(address,uint256,bytes)": {
        "params": {
          "dest": "destination address to call",
          "func": "the calldata to pass in this call",
          "value": "the value to pass in this call"
        }
      },
      "executeBatch(address[],uint256[],bytes[])": {
        "details": "to reduce gas consumption for trivial case (no value), use a zero-length array to mean zero value",
        "params": {
          "dest": "an array of destination addresses",
          "func": "an array of calldata to pass to each call",
          "value": "an array of values to pass to each call. can be zero-length for no-value calls"
        }
      },
      "owner()": {
        "details": "Returns the address of the current owner."
      },
      "renounceOwnership()": {
        "details": "Leaves the contract without owner. It will not be possible to call `onlyOwner` functions. Can only be called by the current owner. NOTE: Renouncing ownership will leave the contract without an owner, thereby disabling any functionality that is only available to the owner."
      },
      "transferOwnership(address)": {
        "details": "Transfers ownership of the contract to a new account (`newOwner`). Can only be called by the current owner."
      }
    },
    "version": 1
  },
  "userdoc": {
    "kind": "user",
    "methods": {
      "execute(address,uint256,bytes)": {
        "notice": "Execute a transaction (called directly from owner, or by entryPoint)"
      },
      "executeBatch(address[],uint256[],bytes[])": {
        "notice": "Execute a sequence of transactions"
      }
    },
    "version": 1
  },
  "storageLayout": {
    "storage": [],
    "types": null
  }
}